{
  "contractName": "dEmergency",
  "abi": [
    {
      "inputs": [],
      "payable": true,
      "stateMutability": "payable",
      "type": "constructor",
      "signature": "constructor"
    },
    {
      "anonymous": false,
      "inputs": [
        {
          "indexed": false,
          "name": "hospital",
          "type": "address"
        },
        {
          "indexed": false,
          "name": "location",
          "type": "string"
        },
        {
          "indexed": false,
          "name": "mobileNumber",
          "type": "string"
        }
      ],
      "name": "InformHospital",
      "type": "event",
      "signature": "0x97c935ae7c8ed323f4541038e26aac0bbb7b18bd016c553d885861bba306ad99"
    },
    {
      "anonymous": false,
      "inputs": [
        {
          "indexed": false,
          "name": "hospital",
          "type": "address"
        },
        {
          "indexed": false,
          "name": "location",
          "type": "string"
        },
        {
          "indexed": false,
          "name": "mobileNumber",
          "type": "string"
        }
      ],
      "name": "InformPatient",
      "type": "event",
      "signature": "0xc35fae7e4476383956494f22248cd58c73f238bf01810ee1027769a348e80823"
    },
    {
      "constant": false,
      "inputs": [
        {
          "name": "_hospital",
          "type": "address"
        },
        {
          "name": "_location",
          "type": "string"
        },
        {
          "name": "_mobileNumber",
          "type": "string"
        },
        {
          "name": "_hospitalCapacity",
          "type": "uint256"
        },
        {
          "name": "_hospitalAvailability",
          "type": "uint256"
        }
      ],
      "name": "addHospital",
      "outputs": [],
      "payable": false,
      "stateMutability": "nonpayable",
      "type": "function",
      "signature": "0x4d622c4b"
    },
    {
      "constant": false,
      "inputs": [
        {
          "name": "location",
          "type": "string"
        },
        {
          "name": "_mobileNumber",
          "type": "string"
        }
      ],
      "name": "addPatient",
      "outputs": [
        {
          "name": "",
          "type": "bool"
        }
      ],
      "payable": false,
      "stateMutability": "nonpayable",
      "type": "function",
      "signature": "0x239ee6c1"
    }
  ],
  "bytecode": "0x6080604052336000806101000a81548173ffffffffffffffffffffffffffffffffffffffff021916908373ffffffffffffffffffffffffffffffffffffffff160217905550610b05806100536000396000f3fe60806040526004361061004c576000357c0100000000000000000000000000000000000000000000000000000000900463ffffffff168063239ee6c1146100515780634d622c4b146101c8575b600080fd5b34801561005d57600080fd5b506101ae6004803603604081101561007457600080fd5b810190808035906020019064010000000081111561009157600080fd5b8201836020820111156100a357600080fd5b803590602001918460018302840111640100000000831117156100c557600080fd5b91908080601f016020809104026020016040519081016040528093929190818152602001838380828437600081840152601f19601f8201169050808301925050505050505091929192908035906020019064010000000081111561012857600080fd5b82018360208201111561013a57600080fd5b8035906020019184600183028401116401000000008311171561015c57600080fd5b91908080601f016020809104026020016040519081016040528093929190818152602001838380828437600081840152601f19601f82011690508083019250505050505050919291929050505061035b565b604051808215151515815260200191505060405180910390f35b3480156101d457600080fd5b50610359600480360360a08110156101eb57600080fd5b81019080803573ffffffffffffffffffffffffffffffffffffffff1690602001909291908035906020019064010000000081111561022857600080fd5b82018360208201111561023a57600080fd5b8035906020019184600183028401116401000000008311171561025c57600080fd5b91908080601f016020809104026020016040519081016040528093929190818152602001838380828437600081840152601f19601f820116905080830192505050505050509192919290803590602001906401000000008111156102bf57600080fd5b8201836020820111156102d157600080fd5b803590602001918460018302840111640100000000831117156102f357600080fd5b91908080601f016020809104026020016040519081016040528093929190818152602001838380828437600081840152601f19601f8201169050808301925050505050505091929192908035906020019092919080359060200190929190505050610825565b005b6000806002846040518082805190602001908083835b6020831015156103965780518252602082019150602081019050602083039250610371565b6001836020036101000a038019825116818451168082178552505050505050905001915050908152602001604051809103902060009054906101000a900473ffffffffffffffffffffffffffffffffffffffff1690506000600160008373ffffffffffffffffffffffffffffffffffffffff1673ffffffffffffffffffffffffffffffffffffffff168152602001908152602001600020600201541415151561043e57600080fd5b6000600160008373ffffffffffffffffffffffffffffffffffffffff1673ffffffffffffffffffffffffffffffffffffffff1681526020019081526020016000206003015411156108195760018060008373ffffffffffffffffffffffffffffffffffffffff1673ffffffffffffffffffffffffffffffffffffffff168152602001908152602001600020600301600082825403925050819055507fc35fae7e4476383956494f22248cd58c73f238bf01810ee1027769a348e8082381600160008473ffffffffffffffffffffffffffffffffffffffff1673ffffffffffffffffffffffffffffffffffffffff168152602001908152602001600020600001600160008573ffffffffffffffffffffffffffffffffffffffff1673ffffffffffffffffffffffffffffffffffffffff168152602001908152602001600020600101604051808473ffffffffffffffffffffffffffffffffffffffff1673ffffffffffffffffffffffffffffffffffffffff168152602001806020018060200183810383528581815460018160011615610100020316600290048152602001915080546001816001161561010002031660029004801561063e5780601f106106135761010080835404028352916020019161063e565b820191906000526020600020905b81548152906001019060200180831161062157829003601f168201915b50508381038252848181546001816001161561010002031660029004815260200191508054600181600116156101000203166002900480156106c15780601f10610696576101008083540402835291602001916106c1565b820191906000526020600020905b8154815290600101906020018083116106a457829003601f168201915b50509550505050505060405180910390a17f97c935ae7c8ed323f4541038e26aac0bbb7b18bd016c553d885861bba306ad99818585604051808473ffffffffffffffffffffffffffffffffffffffff1673ffffffffffffffffffffffffffffffffffffffff1681526020018060200180602001838103835285818151815260200191508051906020019080838360005b8381101561076c578082015181840152602081019050610751565b50505050905090810190601f1680156107995780820380516001836020036101000a031916815260200191505b50838103825284818151815260200191508051906020019080838360005b838110156107d25780820151818401526020810190506107b7565b50505050905090810190601f1680156107ff5780820380516001836020036101000a031916815260200191505b509550505050505060405180910390a1600191505061081f565b60009150505b92915050565b6000809054906101000a900473ffffffffffffffffffffffffffffffffffffffff1673ffffffffffffffffffffffffffffffffffffffff163373ffffffffffffffffffffffffffffffffffffffff1614151561088057600080fd5b6000600160008773ffffffffffffffffffffffffffffffffffffffff1673ffffffffffffffffffffffffffffffffffffffff168152602001908152602001600020600201541415156108d157600080fd5b60806040519081016040528085815260200184815260200183815260200182815250600160008773ffffffffffffffffffffffffffffffffffffffff1673ffffffffffffffffffffffffffffffffffffffff168152602001908152602001600020600082015181600001908051906020019061094e929190610a34565b50602082015181600101908051906020019061096b929190610a34565b506040820151816002015560608201518160030155905050846002856040518082805190602001908083835b6020831015156109bc5780518252602082019150602081019050602083039250610997565b6001836020036101000a038019825116818451168082178552505050505050905001915050908152602001604051809103902060006101000a81548173ffffffffffffffffffffffffffffffffffffffff021916908373ffffffffffffffffffffffffffffffffffffffff1602179055505050505050565b828054600181600116156101000203166002900490600052602060002090601f016020900481019282601f10610a7557805160ff1916838001178555610aa3565b82800160010185558215610aa3579182015b82811115610aa2578251825591602001919060010190610a87565b5b509050610ab09190610ab4565b5090565b610ad691905b80821115610ad2576000816000905550600101610aba565b5090565b9056fea165627a7a72305820011299a26835b8ce7e461f545e3a29fb100b2a3292adefc53a14f89ca359e6560029",
  "source": "pragma solidity >=0.4.26;\n\ncontract dEmergency {\n\n    address private creator;\n\n    struct Hospital{\n        string location;\n        string mobileNumber;\n        uint hospitalCapacity;\n        uint hospitalAvailability;\n    }\n\n    mapping(address => Hospital) HospitalInfo;\n    mapping(string => address) HospitalLoc;\n    event InformHospital(address hospital, string location, string mobileNumber);\n    event InformPatient(address hospital,string location, string mobileNumber);\n\n    constructor() public payable {\n        creator = msg.sender;\n\n    }\n\n\n    function addHospital(address _hospital,string memory _location,string memory _mobileNumber,uint _hospitalCapacity,uint _hospitalAvailability) public {\n        require(msg.sender == creator);\n        require(HospitalInfo[_hospital].hospitalCapacity ==0);\n        HospitalInfo[_hospital] = Hospital(_location, _mobileNumber, _hospitalCapacity, _hospitalAvailability);\n        HospitalLoc[_location]=_hospital;\n\n    }\n\n    function addPatient(string memory location,string memory _mobileNumber) public returns(bool) {\n\n        address _hospital = HospitalLoc[location];\n\n        require(HospitalInfo[_hospital].hospitalCapacity != 0);\n\n        if(HospitalInfo[_hospital].hospitalAvailability > 0)\n        {\n\n            HospitalInfo[_hospital].hospitalAvailability -= 1;\n\n            //events triggered,for dagger\n            emit InformPatient(_hospital,HospitalInfo[_hospital].location, HospitalInfo[_hospital].mobileNumber);\n            emit InformHospital(_hospital, location, _mobileNumber);\n\n          return true;\n\n\n        }\n        else\n        {\n\n        return false;\n\n        }\n\n\n\n    }\n\n\n    \n\n\n\n\n\n\n\n\n\n\n}\n",
  "sourcePath": "/home/hrishabh/dEmergency/contracts/dEmergency.sol",
  "compiler": {
    "name": "solc",
    "version": "0.5.0+commit.1d4f565a.Emscripten.clang"
  },
  "schemaVersion": "3.0.0",
  "updatedAt": "2019-02-01T09:11:17.129Z",
  "devdoc": {
    "methods": {}
  },
  "userdoc": {
    "methods": {}
  }
}