{
  "contractName": "dEmergency",
  "abi": [
    {
      "constant": true,
      "inputs": [
        {
          "name": "",
          "type": "address"
        }
      ],
      "name": "HospitalInfo",
      "outputs": [
        {
          "name": "location",
          "type": "string"
        },
        {
          "name": "mobileNumber",
          "type": "string"
        },
        {
          "name": "hospitalCapacity",
          "type": "uint256"
        },
        {
          "name": "hospitalAvailability",
          "type": "uint256"
        },
        {
          "name": "speciality",
          "type": "uint256"
        }
      ],
      "payable": false,
      "stateMutability": "view",
      "type": "function",
      "signature": "0x2a1a7abe"
    },
    {
      "constant": true,
      "inputs": [
        {
          "name": "",
          "type": "address"
        },
        {
          "name": "",
          "type": "address"
        }
      ],
      "name": "PatientHospital",
      "outputs": [
        {
          "name": "name",
          "type": "string"
        },
        {
          "name": "mobileNumber",
          "type": "string"
        }
      ],
      "payable": false,
      "stateMutability": "view",
      "type": "function",
      "signature": "0x6cd2f6b9"
    },
    {
      "inputs": [],
      "payable": true,
      "stateMutability": "payable",
      "type": "constructor",
      "signature": "constructor"
    },
    {
      "anonymous": false,
      "inputs": [
        {
          "indexed": false,
          "name": "hospital",
          "type": "address"
        },
        {
          "indexed": false,
          "name": "location",
          "type": "string"
        },
        {
          "indexed": false,
          "name": "mobileNumber",
          "type": "string"
        }
      ],
      "name": "InformHospital",
      "type": "event",
      "signature": "0x97c935ae7c8ed323f4541038e26aac0bbb7b18bd016c553d885861bba306ad99"
    },
    {
      "anonymous": false,
      "inputs": [
        {
          "indexed": false,
          "name": "hospital",
          "type": "address"
        },
        {
          "indexed": false,
          "name": "location",
          "type": "string"
        },
        {
          "indexed": false,
          "name": "mobileNumber",
          "type": "string"
        }
      ],
      "name": "InformPatient",
      "type": "event",
      "signature": "0xc35fae7e4476383956494f22248cd58c73f238bf01810ee1027769a348e80823"
    },
    {
      "constant": false,
      "inputs": [
        {
          "name": "_hospital",
          "type": "address"
        },
        {
          "name": "_location",
          "type": "string"
        },
        {
          "name": "_mobileNumber",
          "type": "string"
        },
        {
          "name": "_hospitalCapacity",
          "type": "uint256"
        },
        {
          "name": "_hospitalAvailability",
          "type": "uint256"
        },
        {
          "name": "_speciality",
          "type": "uint256"
        }
      ],
      "name": "addHospital",
      "outputs": [],
      "payable": false,
      "stateMutability": "nonpayable",
      "type": "function",
      "signature": "0xb39025c1"
    },
    {
      "constant": false,
      "inputs": [
        {
          "name": "_patient",
          "type": "address"
        },
        {
          "name": "location",
          "type": "string"
        },
        {
          "name": "_mobileNumber",
          "type": "string"
        },
        {
          "name": "_speciality",
          "type": "uint256"
        },
        {
          "name": "name",
          "type": "string"
        }
      ],
      "name": "addPatient",
      "outputs": [
        {
          "name": "",
          "type": "bool"
        }
      ],
      "payable": false,
      "stateMutability": "nonpayable",
      "type": "function",
      "signature": "0x6c0029ef"
    },
    {
      "constant": false,
      "inputs": [
        {
          "name": "_hospital",
          "type": "address"
        },
        {
          "name": "_patient",
          "type": "address"
        }
      ],
      "name": "discharge",
      "outputs": [
        {
          "name": "",
          "type": "bool"
        }
      ],
      "payable": false,
      "stateMutability": "nonpayable",
      "type": "function",
      "signature": "0xf471df55"
    },
    {
      "constant": false,
      "inputs": [
        {
          "name": "_hospital",
          "type": "address"
        },
        {
          "name": "_patient",
          "type": "address"
        }
      ],
      "name": "showPatientAllotment",
      "outputs": [
        {
          "name": "name",
          "type": "string"
        }
      ],
      "payable": false,
      "stateMutability": "nonpayable",
      "type": "function",
      "signature": "0x22a124e2"
    }
  ],
  "bytecode": "0x6080604052336000806101000a81548173ffffffffffffffffffffffffffffffffffffffff021916908373ffffffffffffffffffffffffffffffffffffffff160217905550611679806100536000396000f3fe608060405260043610610078576000357c0100000000000000000000000000000000000000000000000000000000900463ffffffff16806322a124e21461007d5780632a1a7abe146101675780636c0029ef146102b25780636cd2f6b9146104ea578063b39025c114610640578063f471df55146107dd575b600080fd5b34801561008957600080fd5b506100ec600480360360408110156100a057600080fd5b81019080803573ffffffffffffffffffffffffffffffffffffffff169060200190929190803573ffffffffffffffffffffffffffffffffffffffff169060200190929190505050610866565b6040518080602001828103825283818151815260200191508051906020019080838360005b8381101561012c578082015181840152602081019050610111565b50505050905090810190601f1680156101595780820380516001836020036101000a031916815260200191505b509250505060405180910390f35b34801561017357600080fd5b506101b66004803603602081101561018a57600080fd5b81019080803573ffffffffffffffffffffffffffffffffffffffff169060200190929190505050610988565b604051808060200180602001868152602001858152602001848152602001838103835288818151815260200191508051906020019080838360005b8381101561020c5780820151818401526020810190506101f1565b50505050905090810190601f1680156102395780820380516001836020036101000a031916815260200191505b50838103825287818151815260200191508051906020019080838360005b83811015610272578082015181840152602081019050610257565b50505050905090810190601f16801561029f5780820380516001836020036101000a031916815260200191505b5097505050505050505060405180910390f35b3480156102be57600080fd5b506104d0600480360360a08110156102d557600080fd5b81019080803573ffffffffffffffffffffffffffffffffffffffff1690602001909291908035906020019064010000000081111561031257600080fd5b82018360208201111561032457600080fd5b8035906020019184600183028401116401000000008311171561034657600080fd5b91908080601f016020809104026020016040519081016040528093929190818152602001838380828437600081840152601f19601f820116905080830192505050505050509192919290803590602001906401000000008111156103a957600080fd5b8201836020820111156103bb57600080fd5b803590602001918460018302840111640100000000831117156103dd57600080fd5b91908080601f016020809104026020016040519081016040528093929190818152602001838380828437600081840152601f19601f820116905080830192505050505050509192919290803590602001909291908035906020019064010000000081111561044a57600080fd5b82018360208201111561045c57600080fd5b8035906020019184600183028401116401000000008311171561047e57600080fd5b91908080601f016020809104026020016040519081016040528093929190818152602001838380828437600081840152601f19601f820116905080830192505050505050509192919290505050610aee565b604051808215151515815260200191505060405180910390f35b3480156104f657600080fd5b506105596004803603604081101561050d57600080fd5b81019080803573ffffffffffffffffffffffffffffffffffffffff169060200190929190803573ffffffffffffffffffffffffffffffffffffffff169060200190929190505050611089565b604051808060200180602001838103835285818151815260200191508051906020019080838360005b8381101561059d578082015181840152602081019050610582565b50505050905090810190601f1680156105ca5780820380516001836020036101000a031916815260200191505b50838103825284818151815260200191508051906020019080838360005b838110156106035780820151818401526020810190506105e8565b50505050905090810190601f1680156106305780820380516001836020036101000a031916815260200191505b5094505050505060405180910390f35b34801561064c57600080fd5b506107db600480360360c081101561066357600080fd5b81019080803573ffffffffffffffffffffffffffffffffffffffff169060200190929190803590602001906401000000008111156106a057600080fd5b8201836020820111156106b257600080fd5b803590602001918460018302840111640100000000831117156106d457600080fd5b91908080601f016020809104026020016040519081016040528093929190818152602001838380828437600081840152601f19601f8201169050808301925050505050505091929192908035906020019064010000000081111561073757600080fd5b82018360208201111561074957600080fd5b8035906020019184600183028401116401000000008311171561076b57600080fd5b91908080601f016020809104026020016040519081016040528093929190818152602001838380828437600081840152601f19601f8201169050808301925050505050505091929192908035906020019092919080359060200190929190803590602001909291905050506111ea565b005b3480156107e957600080fd5b5061084c6004803603604081101561080057600080fd5b81019080803573ffffffffffffffffffffffffffffffffffffffff169060200190929190803573ffffffffffffffffffffffffffffffffffffffff16906020019092919050505061140a565b604051808215151515815260200191505060405180910390f35b6060600360008473ffffffffffffffffffffffffffffffffffffffff1673ffffffffffffffffffffffffffffffffffffffff16815260200190815260200160002060008373ffffffffffffffffffffffffffffffffffffffff1673ffffffffffffffffffffffffffffffffffffffff1681526020019081526020016000206000018054600181600116156101000203166002900480601f01602080910402602001604051908101604052809291908181526020018280546001816001161561010002031660029004801561097b5780601f106109505761010080835404028352916020019161097b565b820191906000526020600020905b81548152906001019060200180831161095e57829003601f168201915b5050505050905092915050565b6001602052806000526040600020600091509050806000018054600181600116156101000203166002900480601f016020809104026020016040519081016040528092919081815260200182805460018160011615610100020316600290048015610a345780601f10610a0957610100808354040283529160200191610a34565b820191906000526020600020905b815481529060010190602001808311610a1757829003601f168201915b505050505090806001018054600181600116156101000203166002900480601f016020809104026020016040519081016040528092919081815260200182805460018160011615610100020316600290048015610ad25780601f10610aa757610100808354040283529160200191610ad2565b820191906000526020600020905b815481529060010190602001808311610ab557829003601f168201915b5050505050908060020154908060030154908060040154905085565b6000806002866040518082805190602001908083835b602083101515610b295780518252602082019150602081019050602083039250610b04565b6001836020036101000a038019825116818451168082178552505050505050905001915050908152602001604051809103902060009054906101000a900473ffffffffffffffffffffffffffffffffffffffff1690506000600160008373ffffffffffffffffffffffffffffffffffffffff1673ffffffffffffffffffffffffffffffffffffffff1681526020019081526020016000206002015414151515610bd157600080fd5b6000600160008373ffffffffffffffffffffffffffffffffffffffff1673ffffffffffffffffffffffffffffffffffffffff16815260200190815260200160002060030154111561107a5760018060008373ffffffffffffffffffffffffffffffffffffffff1673ffffffffffffffffffffffffffffffffffffffff16815260200190815260200160002060030160008282540392505081905550604080519081016040528084815260200186815250600360008373ffffffffffffffffffffffffffffffffffffffff1673ffffffffffffffffffffffffffffffffffffffff16815260200190815260200160002060008973ffffffffffffffffffffffffffffffffffffffff1673ffffffffffffffffffffffffffffffffffffffff1681526020019081526020016000206000820151816000019080519060200190610d19929190611560565b506020820151816001019080519060200190610d36929190611560565b509050507fc35fae7e4476383956494f22248cd58c73f238bf01810ee1027769a348e8082381600160008473ffffffffffffffffffffffffffffffffffffffff1673ffffffffffffffffffffffffffffffffffffffff168152602001908152602001600020600001600160008573ffffffffffffffffffffffffffffffffffffffff1673ffffffffffffffffffffffffffffffffffffffff168152602001908152602001600020600101604051808473ffffffffffffffffffffffffffffffffffffffff1673ffffffffffffffffffffffffffffffffffffffff1681526020018060200180602001838103835285818154600181600116156101000203166002900481526020019150805460018160011615610100020316600290048015610e9f5780601f10610e7457610100808354040283529160200191610e9f565b820191906000526020600020905b815481529060010190602001808311610e8257829003601f168201915b5050838103825284818154600181600116156101000203166002900481526020019150805460018160011615610100020316600290048015610f225780601f10610ef757610100808354040283529160200191610f22565b820191906000526020600020905b815481529060010190602001808311610f0557829003601f168201915b50509550505050505060405180910390a17f97c935ae7c8ed323f4541038e26aac0bbb7b18bd016c553d885861bba306ad99818787604051808473ffffffffffffffffffffffffffffffffffffffff1673ffffffffffffffffffffffffffffffffffffffff1681526020018060200180602001838103835285818151815260200191508051906020019080838360005b83811015610fcd578082015181840152602081019050610fb2565b50505050905090810190601f168015610ffa5780820380516001836020036101000a031916815260200191505b50838103825284818151815260200191508051906020019080838360005b83811015611033578082015181840152602081019050611018565b50505050905090810190601f1680156110605780820380516001836020036101000a031916815260200191505b509550505050505060405180910390a16001915050611080565b60009150505b95945050505050565b600360205281600052604060002060205280600052604060002060009150915050806000018054600181600116156101000203166002900480601f0160208091040260200160405190810160405280929190818152602001828054600181600116156101000203166002900480156111425780601f1061111757610100808354040283529160200191611142565b820191906000526020600020905b81548152906001019060200180831161112557829003601f168201915b505050505090806001018054600181600116156101000203166002900480601f0160208091040260200160405190810160405280929190818152602001828054600181600116156101000203166002900480156111e05780601f106111b5576101008083540402835291602001916111e0565b820191906000526020600020905b8154815290600101906020018083116111c357829003601f168201915b5050505050905082565b6000809054906101000a900473ffffffffffffffffffffffffffffffffffffffff1673ffffffffffffffffffffffffffffffffffffffff163373ffffffffffffffffffffffffffffffffffffffff1614151561124557600080fd5b6000600160008873ffffffffffffffffffffffffffffffffffffffff1673ffffffffffffffffffffffffffffffffffffffff1681526020019081526020016000206002015414151561129657600080fd5b60a06040519081016040528086815260200185815260200184815260200183815260200182815250600160008873ffffffffffffffffffffffffffffffffffffffff1673ffffffffffffffffffffffffffffffffffffffff1681526020019081526020016000206000820151816000019080519060200190611319929190611560565b506020820151816001019080519060200190611336929190611560565b50604082015181600201556060820151816003015560808201518160040155905050856002866040518082805190602001908083835b602083101515611391578051825260208201915060208101905060208303925061136c565b6001836020036101000a038019825116818451168082178552505050505050905001915050908152602001604051809103902060006101000a81548173ffffffffffffffffffffffffffffffffffffffff021916908373ffffffffffffffffffffffffffffffffffffffff160217905550505050505050565b60008060009054906101000a900473ffffffffffffffffffffffffffffffffffffffff1673ffffffffffffffffffffffffffffffffffffffff163373ffffffffffffffffffffffffffffffffffffffff1614151561146757600080fd5b60018060008573ffffffffffffffffffffffffffffffffffffffff1673ffffffffffffffffffffffffffffffffffffffff16815260200190815260200160002060030160008282540192505081905550600360008473ffffffffffffffffffffffffffffffffffffffff1673ffffffffffffffffffffffffffffffffffffffff16815260200190815260200160002060008373ffffffffffffffffffffffffffffffffffffffff1673ffffffffffffffffffffffffffffffffffffffff1681526020019081526020016000206000808201600061154491906115e0565b60018201600061155491906115e0565b50506001905092915050565b828054600181600116156101000203166002900490600052602060002090601f016020900481019282601f106115a157805160ff19168380011785556115cf565b828001600101855582156115cf579182015b828111156115ce5782518255916020019190600101906115b3565b5b5090506115dc9190611628565b5090565b50805460018160011615610100020316600290046000825580601f106116065750611625565b601f0160209004906000526020600020908101906116249190611628565b5b50565b61164a91905b8082111561164657600081600090555060010161162e565b5090565b9056fea165627a7a72305820042a78d5aaa38eba054113d6f9be95c93e51cb13ecec7aed3370e38858a827400029",
  "source": "pragma solidity >=0.4.26;\n\ncontract dEmergency {\n\n    address private creator;\n\n    struct Hospital{\n        string location;\n        string mobileNumber;\n        uint hospitalCapacity;\n        uint hospitalAvailability;\n        uint speciality;\n    }\n\n    struct Patient {\n        string name;\n        string mobileNumber;\n    }\n\n    mapping(address => Hospital) public HospitalInfo;\n    mapping(string => address) HospitalLoc;\n    //mapping(address => address) PatientHospital;\n    mapping(address => mapping(address =>Patient)) public PatientHospital;\n    event InformHospital(address hospital, string location, string mobileNumber);\n    event InformPatient(address hospital,string location, string mobileNumber);\n\n    constructor() public payable {\n        creator = msg.sender;\n\n    }\n\n    // function getHospitalInfo(address _hospital) public returns(uint,uint,string memory){\n\n    //     return (HospitalInfo[_hospital].hospitalAvailability,HospitalInfo[_hospital].hospitalCapacity,HospitalInfo[_hospital].location);\n    // }\n\n\n    function addHospital(address _hospital,string memory _location,string memory _mobileNumber,uint _hospitalCapacity,uint _hospitalAvailability,uint _speciality) public {\n        require(msg.sender == creator);\n        require(HospitalInfo[_hospital].hospitalCapacity ==0);\n        HospitalInfo[_hospital] = Hospital(_location, _mobileNumber, _hospitalCapacity, _hospitalAvailability,_speciality);\n        HospitalLoc[_location]=_hospital;\n\n\n    }\n\n\n    function addPatient(address _patient,string memory location,string memory _mobileNumber,uint _speciality,string memory name) public returns(bool) {\n\n        address _hospital = HospitalLoc[location];\n\n        require(HospitalInfo[_hospital].hospitalCapacity != 0);\n\n        if(HospitalInfo[_hospital].hospitalAvailability > 0)\n        {\n\n            HospitalInfo[_hospital].hospitalAvailability -= 1;\n            //PatientHospital[_patient]=_hospital;\n\n            PatientHospital[_hospital][_patient] = Patient(name,_mobileNumber);\n            //events triggered,for dagger\n            emit InformPatient(_hospital,HospitalInfo[_hospital].location, HospitalInfo[_hospital].mobileNumber);\n            emit InformHospital(_hospital, location, _mobileNumber);\n\n          return true;\n\n\n        }\n        else\n        {\n        return false;\n        }\n\n\n    }\n\n\n    function discharge(address _hospital,address _patient) public returns(bool){\n\n        require(msg.sender == creator);\n\n        HospitalInfo[_hospital].hospitalAvailability += 1;\n        delete PatientHospital[_hospital][_patient];\n        return true;\n\n    }\n\n    function showPatientAllotment(address _hospital,address _patient) public returns(string memory name){\n\n        return PatientHospital[_hospital][_patient].name;\n\n\n    }\n\n\n\n\n\n}\n",
  "sourcePath": "/home/hrishabh/dEmergency/contracts/dEmergency.sol",
  "compiler": {
    "name": "solc",
    "version": "0.5.0+commit.1d4f565a.Emscripten.clang"
  },
  "schemaVersion": "3.0.0",
  "updatedAt": "2019-02-02T11:08:03.461Z",
  "devdoc": {
    "methods": {}
  },
  "userdoc": {
    "methods": {}
  }
}